:020000040800F2
:1000000000040020C1010008710700087107000802
:1000100071070008710700087107000871070008E0
:100020007107000871070008710700082104000823
:1000300071070008710700087107000871070008C0
:1000400071070008710700087107000871070008B0
:1000500071070008710700087107000871070008A0
:100060007107000871070008710700087107000890
:100070007107000871070008710700087107000880
:100080007107000871070008710700087107000870
:100090007107000871070008710700087107000860
:1000A0007107000871070008710700087107000850
:1000B0008103000871070008710700087107000834
:1000C0007107000871070008710700087107000830
:1000D0007107000871070008A105000871070008F2
:1000E0007107000871070008710700087107000810
:1000F0007107000871070008710700087107000800
:1001000071070008710700087107000871070008EF
:1001100071070008710700087107000871070008DF
:1001200071070008710700087107000871070008CF
:1001300071070008710700087107000871070008BF
:1001400071070008710700087107000871070008AF
:10015000710700087107000871070008710700089F
:10016000710700087107000871070008710700088F
:10017000710700087107000871070008710700087F
:10018000710700087107000871070008710700086F
:10019000710700087107000871070008710700085F
:1001A000710700087107000871070008710700084F
:1001B000710700087107000871070008710700083F
:1001C00072B6264880F3098825484EF60851CEF2CB
:1001D00000010860022080F31488BFF36F8F01F0E4
:1001E00037F800F03DFF4FF055301E491E4A91424E
:1001F0003CBF41F8040BFAE71C49184A91423CBF46
:1002000041F8040BFAE71A491A4A1B4B9A423EBFBF
:1002100051F8040B42F8040BF8E700201749184A7C
:1002200091423CBF41F8040BFAE700F0D1FF01F026
:1002300007F8144C144DAC4203DA54F8041B8847F9
:10024000F9E700F0EDFC114C114DAC4203DA54F823
:10025000041B8847F9E700F0EBBF0000000800200E
:10026000000000080000002000040020000400201E
:100270001C130008000800200008002000080020CF
:10028000400B0020C0010008C0010008C0010008A8
:10029000C00100082DE9F04FC1F80CD0C3689D469D
:1002A000BDE8F08F002383F311882846A047002083
:1002B00000F046FF00F06CFF00DFFEE700000000EA
:1002C000014B5B6883607047001000E00000000095
:1002D00070B4202383F311880B4E0C4A33681568E1
:1002E000013B4C420B444A1E111803EA0400214012
:1002F0002B1A99429ABF091831600020002383F31A
:10030000118870BC704700BFF4090020F00900207C
:10031000024AD36843F08003D36070470044004032
:10032000202383F31188114B5B6813F4006302D11F
:1003300083F31188704780B400AFEFF309834FF067
:10034000807243F8042CA3F1200282F30988084A42
:10035000116892698968926891428CBF054A064A81
:1003600043F8082CBD4680BC704700BF00ED00E09C
:100370007C080020B5020008B80200080000000058
:100380002DE9F8434FF0804633699B0703D4BDE85D
:10039000F843FFF7C5BF00253561202787F3118893
:1003A0001B4C716AE369A26AD3F808E0881A7045A9
:1003B00004F11C0819D31968D3F80C907244414514
:1003C000A262C1F80480E161DD6008BFF56085F3D9
:1003D00011881869C84787F31188E369716AA26AAE
:1003E000D3F808E0881A8645E5D9434508D0724419
:1003F000521A4FF08043022A2CBF8A188A1C5A6373
:10040000002383F31188BDE8F843FFF789BF00BFDD
:100410007C08002000000000000000000000000038
:1004200080B400AFEFF30983203383F309880023FE
:1004300083F31188BD4680BC704700BF00000000F8
:100440000E4B0F4A5B68C168F0B48768566F42680C
:10045000D0E90445DB1B9B1BE41845F100059342E2
:10046000026888BF436001319342C0E90445C1601E
:10047000836038BF0360F0BC704700BF001000E02D
:100480007C080020000000000000000000000000C8
:10049000202383F3118890F82030072B0ED8DFE853
:1004A00003F0280D0D2408040D08426A93680133F7
:1004B000936090E80C001A600268536010B4002248
:1004C0004FF0FF3481680D4B446280F820201B6898
:1004D0009A688A42FBD25A68426003600021106029
:1004E000586081F3118810BC7047436A00221A607B
:1004F000E4E7002383F31188704700BF7C080020E5
:1005000000228168084B10B4044680F820201B6844
:100510009A688A42FBD25A6862602360204614605F
:100520005C6010BC704700BF7C0800200000000029
:10053000F8B5174F57F8044FBC4221D005460026A6
:1005400002E02468BC421BD0E3682B43E36015B192
:1005500022691342F5D06068A368416B90F82020AF
:100560000B430A2A43630CD00B2AEAD1426A32EACF
:100570000303E6D14662FFF7C3FF2468BC42E3D120
:10058000F8BD426A1342DCD04662FFF7B9FFF4E7D8
:100590000008002000000000000000000000000033
:1005A0002DE9F043694D6E6FD6F80C903368DA058B
:1005B00083B09CB200F18280202383F3118814F071
:1005C0002F0F49D0624F4FF0000807E0A106736873
:1005D0001CD43468A4B214F02F0F3DD02307F5D0FB
:1005E00014F0080F0CBF00208020E10748BF40F046
:1005F0002000A20748BF40F04000630748BF40F416
:100600008070FFF795FFA1067368E2D56A6995F8D7
:100610007840002A41D02A6A696A8A4246D06969CC
:100620002340501C01312862696113702A6AEB690A
:100630009A4201D3AB692B62EB68BB42C9D01A68FE
:10064000EA6018465760C3F82480FFF759FF346802
:10065000A4B214F02F0FC1D1002383F3118819F035
:10066000800F01D0220637D4630611D5202383F3EF
:1006700011886A6CAB6C9A4253D04FF6BF7309EA8B
:1006800003036FF04002F3600023326083F31188AC
:1006900003B0BDE8F043FFF743BE04200193FFF72A
:1006A00047FF2A6A696A019B8A42B8D169690029B1
:1006B000B5D04FF48060FFF73BFF8AE7202383F338
:1006C00011884FF40070FFF733FF6FF480733360CD
:1006D000002383F311886FE7202383F31188AB6C29
:1006E0006A6C9A4224D0AA6B296C581C0132AA6306
:1006F000A86488421F7801D3EB6BAB642B6B154A5F
:10070000934209D0196829634FF0000E4A601846D9
:10071000C3F824E0FFF7F4FE7760002383F3118829
:10072000A2E7AB6B002BA8D01020FFF701FFA4E7D6
:10073000AA6B002AD7D00820FFF7FAFE4FF63F73C6
:1007400009EA030343F04003F360E6E700080020F2
:100750000C0800203008002000000000000000000D
:10076000FEE700BF000000000000000000000000E5
:10077000FEE700BF000000000000000000000000D5
:10078000154B70B4002204469D694262A868A168B6
:1007900081420CD884F820201B689A689142FBD9CA
:1007A0005A686260236014605C6070BC704785F8B2
:1007B00020201A46126891688842FBD95068686008
:1007C00001262A600560556084F82060294620468D
:1007D0009C6170BCFFF75EBD7C080020000000003B
:1007E000084B99691A6810B481F8200010681860E5
:1007F0000124436082F82040104610BC9A61FFF744
:1008000049BD00BF7C08002000000000000000007F
:10081000F0B54B1C87B04CD0404C2546A3690593DE
:1008200055F81C3F02294FF0804E074638BF022181
:100830003B48DEF824200490AB425AD0A06A121A3A
:1008400089189A6831D291423CBF4018CEF83400E2
:10085000914204D91B68891A9A688A42FAD35A6865
:10086000029201AE019316605E6003919A68511A7C
:100870004FF0FF32996062623846FFF7B1FF049B88
:100880007BB1E369B3421BD0029A019B1360019BC9
:100890000021AB425A60049103D09A6803990A443C
:1008A0009A60A369586A07B0F0BD1B68891A9A68F4
:1008B000CEE71A4CFFF794FFA369586A07B0F0BD62
:1008C000019AE2610023AA425560049322D0936802
:1008D0000398A16A03444FF080459360686A421A06
:1008E0009342DED99B1A022B2CBFC318831C6B6367
:1008F000D7E7A262881801AE002202230195029573
:100900000391E6612662CEF83400CEF81020CEF8CE
:100910000C30B1E74FF08042D360C2E77C08002082
:10092000910400080000000000000000000000002A
:1009300008B5202484F3118842F210710820FFF7D3
:1009400067FF002383F31188F4E700BF0000000075
:1009500061B1084B10B4024644689B69042083E8E7
:1009600014002360536010BCFFF752BF4FF0FF30FC
:10097000704700BF7C08002000000000000000005D
:100980002DE9F04F994683B004460D461646D0F83F
:100990001C80202383F311884FF080420027526A85
:1009A000009309EB0203019309F1FF3BBA46A368E8
:1009B000FBB16269A368511C013B6161A3602B78A4
:1009C0001370236962699A4224BFE3686361013549
:1009D000B8F1000F01D02046C0478AF31188013ECC
:1009E00007F1010717D0009B83F31188A368002B40
:1009F000DFD11BF1030F12D84FF08042516A019AE8
:100A0000511A894505D32046FFF7A2FF0028CED012
:100A1000002383F31188384603B0BDE8F08F4946C0
:100A20002046FFF795FF0028C1D0F1E70000000045
:100A30003030FFF7A5BF00BF00000000000000003D
:100A400030304FF0FF33FFF79BBF00BF00000000C6
:100A5000F8B504460F461646202383F3118803E0B9
:100A6000FFF776FF002819DBA56831462046002DE8
:100A7000F6D06269A368511C013B6161A3601770E5
:100A8000236962699A4224BFE3686361E3690BB139
:100A900020469847002080F31188F8BD85F311881F
:100AA000F8BD00BF000000000000000000000000D2
:100AB0003030FFF7CDBF00BF000000000000000095
:100AC00030304FF0FF32FFF7C3BF00BF000000001F
:100AD0002DE9F04F994683B004460D461646D0F8EE
:100AE0001C80202383F311884FF080420027526A34
:100AF000009309EB0203019309F1FF3BBA46A36897
:100B0000FBB1A269A368511C013BA161A3601378EA
:100B10002B702369A2699A4224BFE368A36101355F
:100B2000B8F1000F01D02046C0478AF31188013E7A
:100B300007F1010717D0009B83F31188A368002BEE
:100B4000DFD11BF1030F12D84FF08042516A019A96
:100B5000511A894505D32046FFF7FAFE0028CED06A
:100B6000002383F31188384603B0BDE8F08F49466F
:100B70002046FFF7EDFE0028C1D0F1E7000000009D
:100B80000C30FFF7A5BF00BF000000000000000010
:100B90000C304FF0FF33FFF79BBF00BF0000000099
:100BA00070B5202304460E4683F3118803E0FFF757
:100BB000CFFE00281ADBA56831462046002DF6D06E
:100BC000A169A36820694A1C013B8242A360A2611B
:100BD00028BFE3680D7828BFA361E3690BB1204605
:100BE0009847002383F31188284670BD85F3118848
:100BF00070BD00BF00000000000000000000000009
:100C00000C30FFF7CDBF00BF000000000000000067
:100C10000C304FF0FF31FFF7C3BF00BF00000000F2
:100C2000BA4BBB4C1A694FF0FF3100222DE98048C6
:100C300019611A61586959615A61186A60F08050E7
:100C400018621A62586A59625A62196C41F08051EE
:100C50001964216841F480712160196F01F44071B9
:100C6000B1F5007F87B003D04FF4803119671A6760
:100C7000A749DFF898C24A68DFF8F0E2DFF8F0929F
:100C8000A44BA54FDFF8EC82A44EA54CA54822F456
:100C900000724A60DCF8302042F01F02CCF83020AD
:100CA000DCF8502042F01F020025CCF850206FF4F1
:100CB0008A62CEF804504FF6DF7ACEF80820CEF8DC
:100CC0000C904FF4EE424FF42A29CEF814A0CEF83F
:100CD00020204FF0553ACEF824904FF0FF32CEF856
:100CE00000804FF6FF7E4FF080087D6001F5D63121
:100CF000BA609946C7F80CA0C7F814E03D627D625F
:100D0000C7F80080884F7560B260F760C6F814E0DD
:100D10003562756235606560844EA260C4F80CA0CF
:100D2000C4F814E0256265622560814C45608260EC
:100D3000C0F80CA0C0F814E00562456205604D6083
:100D40008A60CE60C1F814E00D624D620D6049F812
:100D5000044B012703F1640103F1540003F10C0675
:100D600003F13004C3F804904FF010095D619D62F7
:100D7000DE601E61986158621862D961D963996416
:100D80001F721C635C63C3F83890DB625964DCF843
:100D90004010684C1B653943CCF8401003F1740EC9
:100DA000A068C3F840E0DFF8D0E1634EC3F84CE040
:100DB000DFF8C8E1C3F874E038434FF08043726253
:100DC0005E49A06042F2CF00986206F11C0E4FF01F
:100DD000805468464FF0000A4FF0000BDA627660EC
:100DE0009D61B5605D633661DD6076615D60B562B1
:100DF0005F6175671F6081F81C83C6F81CE0C1F84D
:100E00008041C6F820E00C608DE824000295366031
:100E10000395CDE904ABFFF753FA6846FFF710FBE3
:100E2000474B484948481860484A4948086049497A
:100E30001160494A4948D468D6F814E00299DFF8AD
:100E400040C171674FF6FF0A04EA0A04C6F848C0B9
:100E500006F1300103EB090C2043414CC6F8388001
:100E600086F85150C6F86C80756686F85270C6F8E0
:100E700044E0B56636649D61C3F810C0C3F814C081
:100E8000CEF81010D060E068DFF8F8E09D6040F028
:100E90008070E06006F1580406F15C00DD6086F8C1
:100EA0005070B4657161B161F564F0653066DEF86B
:100EB000003020243B43CEF8003082F81F9082F8A7
:100EC000224085F3118862B684F31188254B71693D
:100ED000DFF8B4E02448DFF8B4A0C3F8A41003F1AD
:100EE0006C02C3F89C204FF0020903F19002C3F892
:100EF000A8001D67C3F8987083F8B150C3F8CC7090
:100F0000C3F8C850C3F8C45042E000BF00380240E4
:100F10000070004000080020000402400008024069
:100F2000000C0240001002405555550150555555D2
:100F3000FC120008002004E07C08002000E100E032
:100F4000D0090020F4090020D1020008F009002097
:100F5000400B00200080012000ED00E00003FA05B6
:100F6000F0ED00E0F80800206C12000800000240DC
:100F700005511564A004802A1103000800440040B4
:100F800054120008001000E061070008A5020008E4
:100F900083F8B270C3F8A060C3F8AC30C3F86CE05B
:100FA000C3F88CA083F8B09010460A6103F1B80131
:100FB000726103F1BC02C3F8B810C3F8BC20C3F8D7
:100FC000C020FFF7DDFB85F3118884F31188214BE6
:100FD0007169DFF888E0204883F8227103F5807298
:100FE00003F1DC0CC3F81801C3F81411C3F8FCA01A
:100FF000C3F8E050C3F8088183F8209183F82151A9
:10100000C3F83C81C3F83851C3F83451C3F81061B8
:10101000C3F81C31C3F80CC1C3F8DCE003F59477C6
:101020000A6103F596711046C3F82871C3F82C11B4
:10103000C3F830117261FFF7A3FB85F3118884F3C5
:10104000118842F210710820FFF7E2FB002383F3BE
:101050001188F4E7F809002074120008310900082B
:101060002E4A2F4B4FF080504FF40041106419600E
:10107000136843F00103136013689807FCD5936865
:10108000264923F003039360936893608B6813F001
:101090000C03FBD10868214A00F0F90008608B605E
:1010A0004B6F43F001034B67536F9907FCD51D4B02
:1010B000536013681A4943F0807313604B685A04F5
:1010C000FCD5164A13689B01FCD5174B1749916054
:1010D0001A68174B9A4216D0164B40F202721A60E9
:1010E0000E4A936843F002039360936803F00C0385
:1010F000082BFAD1536C43F480435364536E43F48A
:101100008043536670470C4A0C4B12689A42E3D1F5
:10111000084B4FF481721A60E2E700BF00380240CA
:101120000070004010540107002004E000108838CF
:1011300011640020003C024000ED00E041C20F417C
:1011400038B52022034682F31188104A9469A06AB8
:10115000636204F12805854206D00368A362FFF7A5
:10116000CFF9A06AA842F8D194F8223043B994F894
:1011700021309B0704D1636922691A612269536196
:101180000F20BDE83840FFF72BBB00BF7C080020D4
:101190000E4A1068036830B4012194695A60002532
:1011A00080F82010A1681360906184F8205000E05E
:1011B0001B689A689142FBD35A686260236021469B
:1011C00014605C6030BCFFF765B800BF7C0800208D
:1011D000F0B5124F124D134C134B144907F1800E0A
:1011E00000269C4211D904391A4651F8040F42F8DE
:1011F000040B9442F9D8DA43144424F00304043471
:1012000023449D4203D943F8046B9D42FBD8103719
:10121000774502D297E83A00E3E7F0BD7C12000878
:10122000400B0020400B0020400B00201C13000846
:10123000FEE700BF0000000000000000000000000A
:10124000704700BF00000000000000000000000028
:04125000704700BF24
:101254006D61696E00160020040444080C10141813
:101264001C2021220000000069646C65000000005D
:101274006E6F6E616D6500001C130008400B00204A
:10128400400B0020400B00201C130008000000004D
:1012940000000000000000001C1300080000000013
:1012A40000000000000000001C1300080000000003
:1012B40000000000000000001C13000800000000F3
:1012C40000000000000000001C13000800000000E3
:1012D40000000000000000001C13000800000000D3
:1012E40000000000000000001C13000800000000C3
:1012F4000000000000000000410A0008910B0008F3
:10130400C10A0008110C0008B10A0008010C000809
:08131400310A0008810B0008FA
:04000005080001C12D
:00000001FF
